:1000000022C03CC03BC03AC039C038C037C036C03F
:1000100035C034C033C03FC031C030C02FC02EC047
:100020002DC02CC02BC00FC105A84CCDB2D44EB9E9
:100030003836A9020C50B9918688083CA6AAAA2A8B
:10004000BE000000803F11241FBECFEFD2E0DEBF14
:10005000CDBF11E0A0E0B1E0EAE7F8E002C0059012
:100060000D92A230B107D9F721E0A2E0B1E001C0C2
:100070001D92A431B207E1F771D1FDC3C1CFCF9377
:10008000DF931F92CDB7DEB78983B2D089810F90FD
:10009000DF91CF9108951F920F920FB60F92112406
:1000A0002F933F934F935F936F937F938F939F9380
:1000B000AF93BF93EF93FF9323D080910A012DD08C
:1000C000FF91EF91BF91AF919F918F917F916F9130
:1000D0005F914F913F912F910F900FBE0F901F9006
:1000E000189590930D0180930C0170930F0160930C
:1000F0000E01FC0111821082FB0111821082089511
:10010000E0E1F1E0808191812091120130911301B1
:10011000820F931F918380830895CF93DF93809301
:100120000B018AEF90E0909313018093120160918C
:10013000100170911101882777FD8095982F21D2A9
:1001400020E03FEF4FE757E486D19B01AC011FD180
:100150002BED3FE049E450E4A0D20AD3C0910C015A
:10016000D0910D0120E030E048E452E496D220E046
:1001700030E048EC52E40BD1D6D170E0798368834B
:10018000E0910E01F0910F0171836083DF91CF91B7
:1001900008958093BA0084E08093BC00109204011B
:1001A0000895809104010895809104018111FFCF89
:1001B000809100010895209104012111FFCF6093E7
:1001C0000501FC0186E091E0DC012A2F281B26179F
:1001D00018F421912D93F9CF1092020188EF8093AA
:1001E000000185EC8093BC0081E0809304010895B8
:1001F000809104018111FFCF1092020188EF80935A
:10020000000185EC8093BC001092040108952091B8
:1002100004012111FFCF2091020120FF10C026E030
:1002200031E0FC01D9018A2F821B861718F48D91C9
:100230008193F9CF809102018D7F8093020180919B
:100240000201817008951F920F920FB60F92112430
:100250008F939F93EF93FF938091B900803909F4B6
:1002600051C080F48037D9F130F4882309F45CC0A0
:100270008036D1F161C0803809F444C0883809F46F
:1002800053C05AC0883A81F038F4883909F44CC018
:10029000803A09F455C050C0803CA9F0883C09F46C
:1002A00043C0883B19F048C010920301E09103015C
:1002B00081E08E0F80930301F0E0EA5FFE4F8081C2
:1002C0008093BB0018C090910301809105019813A1
:1002D00033C08091020181608093020131C080911E
:1002E0000201846080930201809102018260809308
:1002F00002011092030185EC8093BC0081E08093A1
:10030000040123C0E091030181E08E0F809303017B
:100310008091BB00F0E0EA5FFE4F80838091020194
:10032000816080930201E7CF8091B9008093000142
:1003300080E98093BC0009C08091B90080930001DE
:1003400085EC8093BC0010920401FF91EF919F9186
:100350008F910F900FBE0F901F90189586E084B973
:1003600015B8789483EA809380008AE080938100B6
:1003700080916F00816080936F0068E870E08AE888
:1003800090E0AFDE81E080930A01FFCF5058BB2799
:10039000AA270ED048C139D130F03ED120F031F437
:1003A0009F3F11F41EF42EC10EF4E095E7FB24C12B
:1003B000E92F4AD180F3BA176207730784079507BC
:1003C00018F071F49EF562C10EF4E0950B2EBA2F71
:1003D000A02D0B01B90190010C01CA01A00111244B
:1003E000FF27591B99F0593F50F4503E68F11A16F7
:1003F000F040A22F232F342F4427585FF3CF469588
:1004000037952795A795F0405395C9F77EF41F16A9
:10041000BA0B620B730B840BBAF09150A1F0FF0F73
:10042000BB1F661F771F881FC2F70EC0BA0F621F5F
:10043000731F841F48F4879577956795B795F7954F
:100440009E3F08F0B3CF9395880F08F09927EE0FE1
:100450009795879508950CD0E6C0DED040F0D5D0B2
:1004600030F021F45F3F19F0C7C0511110C1CAC06C
:10047000EBD098F39923C9F35523B1F3951B550B92
:10048000BB27AA2762177307840738F09F5F5F4F67
:10049000220F331F441FAA1FA9F333D00E2E3AF0A8
:1004A000E0E830D091505040E695001CCAF729D0C2
:1004B000FE2F27D0660F771F881FBB1F2617370711
:1004C0004807AB07B0E809F0BB0B802DBF01FF2741
:1004D00093585F4F2AF09E3F510568F08DC0D7C0FA
:1004E0005F3FECF3983EDCF3869577956795B7957B
:1004F000F7959F5FC9F7880F911D9695879597F996
:100500000895E1E0660F771F881FBB1F621773070E
:100510008407BA0720F0621B730B840BBA0BEE1F23
:1005200088F7E095089598D088F09F5790F0B92FFC
:100530009927B751A0F0D1F0660F771F881F991F38
:100540001AF0BA95C9F712C0B13081F09FD0B1E06E
:1005500008959CC0672F782F8827B85F39F0B93F7E
:10056000CCF3869577956795B395D9F73EF490953A
:100570008095709561957F4F8F4F9F4F0895E894B8
:1005800009C097FB3EF490958095709561957F4FDB
:100590008F4F9F4F9923A9F0F92F96E9BB27939589
:1005A000F695879577956795B795F111F8CFFAF499
:1005B000BB0F11F460FF1BC06F5F7F4F8F4F9F4FCA
:1005C00016C0882311F096E911C0772321F09EE828
:1005D000872F762F05C0662371F096E8862F70E08E
:1005E00060E02AF09A95660F771F881FDAF7880F68
:1005F0009695879597F9089597F99F6780E870E039
:1006000060E008959FEF80EC089500240A94161688
:10061000170618060906089500240A9412161306F0
:10062000140605060895092E0394000C11F488237E
:1006300052F0BB0F40F4BF2B11F460FF04C06F5F9A
:100640007F4F8F4F9F4F089557FD9058440F551F70
:1006500059F05F3F71F04795880F97FB991F61F044
:100660009F3F79F087950895121613061406551FBB
:10067000F2CF4695F1DF08C0161617061806991F27
:10068000F1CF86957105610508940895E894BB271C
:1006900066277727CB0197F908950AD0C4CFB5DF35
:1006A00028F0BADF18F0952309F0A6CFABCFEFCF33
:1006B000CBDFA8F39923D9F35523C9F3950F50E065
:1006C000551FAA27EE27FF27BB270024089467950C
:1006D00020F4E20FF31FB41F0A1E220F331F441F22
:1006E000AA1F6695A9F7779530F4F30FB41F0A1E79
:1006F000121E08F46395330F441FAA1F221F76951C
:1007000099F7879520F4B40F0A1E121E631F440F39
:10071000AA1F221F331F8695A9F7862F712D602DE2
:1007200011249F5750408AF0E1F088234AF0EE0FE1
:10073000FF1FBB1F661F771F881F91505040A9F7EE
:100740009E3F510570F058CFA2CF5F3FECF3983E2B
:10075000DCF3869577956795B795F795E7959F5F55
:10076000C1F7FE2B880F911D9695879597F90895EF
:100770009F9305D00F9007FCEE5F28C043CF6CDF3E
:10078000E8F3E894E0E0BB279F57F0F02AED3FE064
:1007900049EC06C0EE0FBB0F661F771F881F28F0BD
:1007A000B23A62077307840728F0B25A620B730BE0
:1007B000840BE3959A9572F7803830F49A95BB0FC5
:1007C000661F771F881FD2F7904813C0EF93E0FF92
:1007D00006C0A2EA2AED3FE049EC5FEBE9DD23DF4A
:1007E0000F90039401FC9058E8E2F0E00EC09F3FA8
:1007F00031F0915020F4879577956795B795880FDC
:10080000911D9695879597F908959F938F937F9360
:100810006F93FF93EF939B01AC013FDFEF91FF914B
:1008200005D02F913F914F915F9137CFDF93CF93B9
:100830001F930F93FF92EF92DF927B018C016894DC
:1008400005C0DA2EEF0134DFFE01E894A591259171
:10085000359145915591AEF3EF01AADDFE01970167
:10086000A801DA9479F7DF90EF90FF900F911F9134
:0A087000CF91DF910895F894FFCFB7
:02087A00F80084
:00000001FF
