:1000000013C02DC02CC02BC02AC029C028C027C0B7
:1000100026C025C024C024C022C021C020C01FC0CB
:100020001EC01DC01CC0EBC011241FBECFEFD2E00C
:10003000DEBFCDBF12E0A0E0B1E0EAE5F3E002C030
:1000400005900D92A430B107D9F722E0A4E0B2E008
:1000500001C01D92AF30B207E1F75CD17CC1D0CFB7
:100060001F920F920FB60F9211242F933F934F932D
:100070008F939F93EF93FF939091040280910101DE
:10008000992341F08F5F809301018A3F29F51092F7
:10009000040222C081508093010181111DC081E0C2
:1000A00080930402809100018F5F8093000184306F
:1000B00031F483E080938000109200010DC0813004
:1000C00011F483E807C0823011F483E203C0833067
:1000D00019F483EA8093800090910101E92FF0E008
:1000E000EE5FFE4F208130E041E0903D08F440E0BB
:1000F00080E090E0942F822B932B909306028093C4
:10010000050290938B0080938A0080910502909164
:1001100006029093890080938800FF91EF919F9150
:100120008F914F913F912F910F900FBE0F901F9085
:100130001895CF93DF931F92CDB7DEB7898334D064
:1001400089810F90DF91CF9108958093BA0084E068
:100150008093BC00109209020895809109020895CD
:10016000809109028111FFCF8091020208952091B0
:1001700009022111FFCF60930A02FC018BE092E09B
:10018000DC012A2F281B261718F421912D93F9CF73
:100190001092070288EF8093020285EC8093BC00E6
:1001A00081E0809309020895809109028111FFCFB7
:1001B0001092070288EF8093020285EC8093BC00C6
:1001C000109209020895209109022111FFCF209178
:1001D000070220FF10C02BE032E0FC01D9018A2F7A
:1001E000821B861718F48D918193F9CF80910702B5
:1001F0008D7F8093070280910702817008951F927E
:100200000F920FB60F9211248F939F93EF93FF934A
:100210008091B900803909F451C080F48037D9F158
:1002200030F4882309F45CC08036D1F161C0803895
:1002300009F444C0883809F453C05AC0883A81F0A0
:1002400038F4883909F44CC0803A09F455C050C0DC
:10025000803CA9F0883C09F443C0883B19F048C0B1
:1002600010920802E091080281E08E0F809308024C
:10027000F0E0E55FFD4F80818093BB0018C0909156
:10028000080280910A02981333C0809107028160AE
:100290008093070231C08091070284608093070237
:1002A000809107028260809307021092080285EC19
:1002B0008093BC0081E08093090223C0E091080292
:1002C00081E08E0F809308028091BB00F0E0E55F33
:1002D000FD4F808380910702816080930702E7CF02
:1002E0008091B9008093020280E98093BC0009C02C
:1002F0008091B9008093020285EC8093BC0010923B
:100300000902FF91EF919F918F910F900FBE0F9077
:100310001F90189580E319DF47DF86E084B915B890
:10032000789483EA809380008AE08093810082E35E
:1003300090E0909389008093880090938B00809345
:100340008A00909306028093050280916F0081607D
:0A03500080936F00FFCFF894FFCFF9
:10035A000332000000000202020303030303030343
:10036A000303030303030404040404040404040548
:10037A000505050505050506060606060607070717
:10038A00070707080808080809090909090A0A0ADB
:10039A000A0B0B0B0B0C0C0C0D0D0D0E0E0E0F0F8A
:1003AA000F1010101111121213131314141515161D
:1003BA001617171819191A1A1B1C1C1D1E1E1F2086
:1003CA0021212223242525262728292A2B2C2D2EB4
:1003DA002F3031323335363738393B3C3D3F404296
:1003EA0043454648494B4D4E5052545657595B5D0A
:1003FA005F616366686A6C6F717376787B7D8083F0
:10040A0085888B8E9194979A9DA0A3A6AAADB0B425
:10041A00B7BBBFC2C6CACED2D6DADEE2E6EAEEF38E
:10042A00F7FC0005090E13171C21262B30353A3F1D
:10043A00444A4F545A5F656A70757B80868C9197DF
:10044A009DA3A9AEB4BAC0C6CCD2D8DEE4EAF0F60F
:04045A00FC00F800AA
:00000001FF
