:1000000013C02DC02CC02BC02AC029C028C027C0B7
:1000100026C025C024C030C022C021C020C01FC0BF
:100020001EC01DC01CC0F0C011241FBECFEFD2E007
:10003000DEBFCDBF11E0A0E0B1E0EEE7F3E002C02B
:1000400005900D92A230B107D9F721E0A2E0B1E00E
:1000500001C01D92AD31B207E1F761D18EC1D0CFA1
:10006000CF93DF931F92CDB7DEB78983A2D089816A
:100070000F90DF91CF9108951F920F920FB60F92BC
:1000800011242F933F934F935F936F937F938F939D
:100090009F93AF93BF93EF93FF934BD080910A014F
:1000A00056D0FF91EF91BF91AF919F918F917F912A
:1000B0006F915F914F913F912F910F900FBE0F90D5
:1000C0001F901895CF92DF92EF92FF920F931F939C
:1000D000CF93DF93CDB7DEB729970FB6F894DEBF85
:1000E0000FBECDBF09831A832B833C834D835E8370
:1000F0006F837887898789E0FE013196A4E1B1E0BA
:1001000001900D928A95E1F7F70111821082F601B4
:100110001182108229960FB6F894DEBF0FBECDBFB4
:10012000DF91CF911F910F91FF90EF90DF90CF90D3
:100130000895E9E1F1E080819181A281B381019686
:10014000A11DB11D80839183A283B3830895809301
:10015000140108958093BA0084E08093BC0010924B
:100160000401089580910401089580910401811192
:10017000FFCF809100010895209104012111FFCF4C
:1001800060930501FC0186E091E0DC012A2F281B29
:10019000261718F421912D93F9CF1092020188EFC0
:1001A0008093000185EC8093BC0081E08093040182
:1001B0000895809104018111FFCF1092020188EF10
:1001C0008093000185EC8093BC0010920401089597
:1001D000209104012111FFCF2091020120FF10C0C6
:1001E00026E031E0FC01D9018A2F821B861718F422
:1001F0008D918193F9CF809102018D7F80930201CF
:1002000080910201817008951F920F920FB60F9294
:1002100011248F939F93EF93FF938091B9008039BE
:1002200009F451C080F48037D9F130F4882309F4FF
:100230005CC08036D1F161C0803809F444C0883890
:1002400009F453C05AC0883A81F038F4883909F467
:100250004CC0803A09F455C050C0803CA9F0883C9D
:1002600009F443C0883B19F048C010920301E091A3
:10027000030181E08E0F80930301F0E0EA5FFE4FFF
:1002800080818093BB0018C090910301809105018B
:10029000981333C08091020181608093020131C0C4
:1002A000809102018460809302018091020182604A
:1002B000809302011092030185EC8093BC0081E0E1
:1002C0008093040123C0E091030181E08E0F8093AD
:1002D00003018091BB00F0E0EA5FFE4F80838091D4
:1002E0000201816080930201E7CF8091B900809381
:1002F000000180E98093BC0009C08091B90080931F
:10030000000185EC8093BC0010920401FF91EF91F5
:100310009F918F910F900FBE0F901F90189580E3C3
:1003200019DF47DF86E084B915B883EA809380003F
:100330008AE08093810080916F0080936F0088E84D
:10034000C82ED12C9AE8E92EF12C00910B011091C6
:100350000C0120910D0130910E0140910F0150913F
:100360001001609111017091120180911301AADEB8
:0E03700081E080930A017894FFCFF894FFCFCC
:02037E00F80085
:00000001FF
