:1000000049C063C062C061C060C05FC05EC05DC007
:100010005CC05BC05AC03CC758C079C762C755C0F6
:1000200054C053C052C0CAC388C2B0C021C149C164
:1000300079C19BC1BDC1D9C1F1C115C245C2A8C218
:10004000ACC2BBC2BFC2C3C2D2C2D6C200C314C3F9
:100050003FC305A84CCDB2D44EB93836A9020C50D6
:10006000B9918688083CA6AAAA2ABE000000803F53
:100070000664EC1B3C04BC163E3BE5B93CC93C376E
:10008000C29E5A3D660498083EEA69AAAA3E00004C
:1000900000803F0011241FBECFEFD2E0DEBFCDBFF6
:1000A00011E0A0E0B1E0EAE1F6E102C005900D92B6
:1000B000A431B107D9F721E0A4E1B1E001C01D925C
:1000C000A53AB207E1F72ED7A6CA9ACF1CBC109268
:1000D000680084B1877E84B915B883B1887186952C
:1000E000869586950895909327018093260108951B
:1000F0009093290180932801089590932B01809378
:100100002A01089581E0809325010895CF93DF931C
:10011000E0912801F091290127813085A0912601E5
:10012000B09127012817390781F09C01255031092A
:100130002230310550F421E014962C931497248337
:10014000C0912A01D0912B012C8318969C938E93F9
:10015000179790878783E0912A01F0912B01908770
:100160008783DF91CF910895EF92FF920F931F93B2
:10017000CF93DF938B30910508F0F1C1FC01EC5E69
:10018000FF4FC0912601D091270109948EEF8C83F7
:10019000E0902801F0902901F701848300912A0161
:1001A00010912B01F801848340E050E060E87FE388
:1001B00049875A876B877C87F70141875287638716
:1001C0007487F80141875287638774876D857E85C0
:1001D00080E090E007D824EE3BEC46E950E4FED600
:1001E000D5D77E876D87F7016585768580E090E0BD
:1001F000F9D72BED3FE049EC5FE3F0D6C7D7F70125
:1002000076876587F8016585768580E090E0EAD796
:100210002BED3FE049E450E4E1D6B8D7F80176870A
:10022000658780E090E0A0EFB2E48F87988BA98B80
:10023000BA8B8B8B9C8BAD8BBE8B80E090E0A8E45F
:10024000B2E4F7018787908BA18BB28B838B948B61
:10025000A58BB68B80E090E0ACE8B2E4F80187872C
:10026000908BA18BB28B838B948BA58BB68B20C08C
:100270008EEF8C83A0912801B091290114968C9364
:100280001497E0912A01F0912B01848340E050E023
:1002900060E87FE349875A876B877C8719964D937F
:1002A0005D936D937C931C97418752876387748716
:1002B00081E090E0DF91CF911F910F91FF90EF903F
:1002C00025CF8EEF8C83A0912801B091290114963F
:1002D0008C931497E0912A01F0912B01848340E0E4
:1002E00050E060E471E449875A876B877C871996F0
:1002F0004D935D936D937C931C97418752876387E1
:1003000074871B8A1C8A1D8A1E8A53961D921D9211
:100310001D921C925697138A148A158A168A84E0B5
:1003200090E0C8CF81E08C83A0912801B091290191
:1003300014968C931497E0912A01F0912B018483F9
:1003400040E050E060E87FE349875A876B877C870D
:1003500019964D935D936D937C931C9741875287BB
:100360006387748785E090E0A5CF81E08C83A091BE
:100370002801B091290114968C931497E0912A01D9
:10038000F0912B01848340E050E060E87FE34987EF
:100390005A876B877C8719964D935D936D937C93F9
:1003A0001C97418752876387748786E090E082CFED
:1003B00080E090E0A6EEB2E48F87988BA98BBA8B91
:1003C00080E090E0A0EFB2E48B8B9C8BAD8BBE8B7A
:1003D000E0912801F09129011786108A118A128A6A
:1003E000138A148A158A168A62C01F86188A198A87
:1003F0001A8A1B8A1C8A1D8A1E8AE0912801F091A4
:10040000290180E090E0A6EEB2E48787908BA18B73
:10041000B28B80E090E0A0EFB2E445C01F86188A5E
:10042000198A1A8A1B8A1C8A1D8A1E8AE091280151
:10043000F09129011786108A118A128A138A148A68
:10044000158A168AE0912A01F0912B0180E090E054
:10045000A6EEB2E48787908BA18BB28B80E090E010
:10046000A0EFB2E465C080E090E0A6EEB2E48F8732
:10047000988BA98BBA8B80E090E0A0EFB2E48B8BD5
:100480009C8BAD8BBE8BE0912801F091290180E01F
:1004900090E0A4E3B2E48787908BA18BB28B80E0DD
:1004A00090E0A8E4B2E4838B948BA58BB68BE091AB
:1004B0002A01F0912B011786108A118A128A138A59
:1004C000148A158A168A4BC080E090E0A6EEB2E44A
:1004D0008F87988BA98BBA8B80E090E0A0EFB2E475
:1004E0008B8B9C8BAD8BBE8BE0912801F091290109
:1004F00080E090E0AEEBB2E48787908BA18BB28B6B
:1005000080E090E0A8ECB2E4838B948BA58BB68B53
:10051000E0912A01F0912B0180E090E0A8EDB1E498
:100520008787908BA18BB28B80E090E0A0EFB1E445
:10053000838B948BA58BB68B12C0CE01A5D18091F5
:10054000280190912901A0D180912A0190912B013D
:10055000DF91CF911F910F91FF90EF9095C1DF91A7
:10056000CF911F910F91FF90EF900895CF93DF935C
:100570004115510509F4B5C08A30910508F0B1C0A4
:10058000815E9F4FFA01E60FF71F8F939F930895A7
:10059000C0912601D091270104C0C0912801D091BB
:1005A00029016081772767FD7095872F972F1CD6CB
:1005B0006B8B7C8B8D8B9E8B94C0C0912A01D091CC
:1005C0002B01EFCFC0912601D091270104C0C0912B
:1005D0002801D09129016081772767FD7095872FC9
:1005E000972F02D66F87788B898B9A8B7AC0C091B0
:1005F0002A01D0912B01EFCF81816081772767FDA0
:100600007095762F6627682B80E090E0EBD59B01F4
:10061000AC0160E070E08AE795E44BD5E0912601FB
:10062000F09127016187728783879487E091280181
:10063000F09129016187728783879487E0912A016D
:10064000F0912B0161877287838794874AC08081EC
:10065000A0912601B091270114968C938081A091DE
:100660002801B091290114968C938081E0912A0190
:10067000F0912B01848335C081816081772767FDEC
:100680007095762F6627682B80E090E0ABD520E050
:1006900030E044EB53E40DD59B01AC019FD42BED2E
:1006A0003FE049E450E4E9D671D5E0912601F091AC
:1006B000270176876587E0912801F09129017687E7
:1006C0006587E0912A01F0912B017687658709C043
:1006D00080818B3034F4992787FD9095DF91CF91FD
:1006E00043CDDF91CF910895CF92DF92EF92FF92A9
:1006F0000F931F93CF93DF938C017B01009759F4E5
:1007000010922501DF91CF911F910F91FF90EF90F3
:10071000DF90CF9008951616170694F78091250163
:10072000882371F3F8018081873021F0992787FDB4
:100730009095ECDCC1E0D0E0CE15DF050CF7F801B8
:10074000EC0FFD1F80818A30D8F6992787FD9095A0
:10075000FC01EE0FFF1FE050FF4FC080D1809E01D3
:100760002C0D3D1D2E153F055CF6BE016F5F7F4FC2
:10077000A801FCDEFFEFCF1ADF0ACC0DDD1DDCCFB8
:10078000880F805381608093BA0085E48093BC0019
:1007900081E08093BE00089590932301809322010D
:1007A00008959093A2018093A10108958CE391E0B4
:1007B00008958091A3019091A40108951F920F9232
:1007C0000FB60F9211242F933F934F935F936F9324
:1007D0007F938F939F93AF93BF93EF93FF938091FA
:1007E000B900803729F4E0912201F091230108C07B
:1007F0008091B900803A41F4E091A101F091A20109
:10080000309761F109952AC08091B900803641F492
:100810001092A4011092A30181E0809324011EC0D4
:100820008091B9008038D1F48091A3019091A40106
:100830008436910511F41092240120912401222381
:1008400069F09C012F5F3F4F3093A4012093A301D7
:100850002091BB00FC01E45CFE4F20838091BC0032
:1008600080688093BC00FF91EF91BF91AF919F9101
:100870008F917F916F915F914F913F912F910F9049
:100880000FBE0F901F901895FC018EEF848310828D
:10089000118212821382168215821086178240E01E
:1008A00050E060E87FE3418752876387748716864C
:1008B00015861786108A118A128A138A148A158A55
:1008C000168A178A0895CF92DF92EF92FF920F93C4
:1008D0001F93CF93DF93EC01CB01BA0129853A85B1
:1008E0004B855C85CAD56B017C016D857E8580E07A
:1008F00090E078D49B01AC01C701B6016FD32BED1A
:100900003FE049EC50E4B2D46B017C0101E010E01F
:100910009B01AC01688179818A819B81AAD51816D7
:1009200014F000E010E01E830D83C882D982EA82B1
:10093000FB82DF91CF911F910F91FF90EF90DF909D
:10094000CF900895FC01178A0895CF93DF93EC01AF
:100950006B897C898D899E8919D46F8BDF91CF91AA
:100960000895CF93DF93EC018C818F3FF9F068817C
:1009700079818A819B81ECD520E030E0A90179D58D
:1009800018162CF460E070E080E89FE303C060E09C
:1009900070E0CB012F85388949895A896ED52B891A
:1009A0003C894D895E891AD3F1D36F8BDF91CF914A
:1009B0000895CF93DF93EC018C818F3F89F068819C
:1009C00079818A819B81C4D52F85388949895A8943
:1009D00054D52B893C894D895E8900D3D7D36F8B41
:1009E000DF91CF910895CF93DF93EC018C818F3FFE
:1009F000B9F0688179818A819B81B0D520E030E0AF
:100A000040E05FE33AD5A4D52F85388949895A89D2
:100A100034D52B893C894D895E89E0D2B7D36F8B61
:100A2000DF91CF910895CF93DF93EC018C8118165D
:100A3000C4F0811110C020E030E040E85EE368813E
:100A400079818A819B8119D583D52F8538894989F8
:100A50005A8913D504C06F85788989899A8996D374
:100A60006F8BDF91CF910895CF93DF93EC018C8151
:100A70001816ACF0811112C020E030E040E85EE3CF
:100A8000688179818A819B81F8D410D32F85388938
:100A900049895A89F2D47AD36F8B01C01F8ADF91BA
:100AA000CF910895CF93DF93EC010DDF8D819E816F
:100AB000892B29F08C8187FD02C081508C838F8126
:100AC000988583309105F9F060F48130910599F0B3
:100AD000029709F56B897C898D899E8957D36F8B25
:100AE0001BC08530910599F050F00697A1F4CE0116
:100AF000DF91CF91B9CFCE01DF91CF915ACFCE0107
:100B0000DF91CF912ECFCE01DF91CF916CCFCE016F
:100B1000DF91CF9188CF1F8ADF91CF9108951092F6
:100B200015011092140181E08093160110921701B3
:100B3000109219011092180110921B0110921A01C3
:100B400010921C0110921D0110921E0110921F01A3
:100B5000089560911C0170911D0180911E0190917A
:100B60001F0140D320E034E244E757E4A2D22BED4A
:100B70003FE049EC50E481D40895CF92DF92EF92A8
:100B8000FF9280911401909115011816190634F402
:100B9000019790931501809314012BC060911C0163
:100BA00070911D0180911E0190911F011BD36B015B
:100BB0007C0120E034E244E757E474D287FF11C09F
:100BC00020E030E040E850E4C701B60107D2DED2B1
:100BD00060931C0170931D0180931E0190931F016F
:100BE00008C010921C0110921D0110921E0110925B
:100BF0001F01FF90EF90DF90CF900895BEDF10921D
:100C000016010895E4E1F1E08081918101969183DC
:100C100080830895CF92DF92EF92FF928091160128
:100C2000811159C060911A0170911B016115710504
:100C300051F1882777FD8095982FD6D26B017C01E2
:100C400020E034E244EF56E414D487FD0CC020E0E9
:100C500034E244E757E4C701B601BFD120E030E0F9
:100C600040E85EE306C020E030E040E85EE3C70114
:100C7000B60103D486D270931901609318011092C3
:100C80001B0110921A01E0901801F0901901B701B0
:100C9000882777FD8095982FA7D29F7720E030E0B6
:100CA00040E050E4E6D387FD13C0F7FE07C065DFE0
:100CB0008091180190911901019606C0A3DF8091DF
:100CC00018019091190101979093190180931801CF
:100CD00081E080931601FF90EF90DF90CF90089510
:100CE00080911C0190911D0190931B0180931A012A
:100CF000089510921601089590933B0180933A0154
:100D0000089584B1876084B915B881EA8093800022
:100D10008AE08093810081E080936F0083E085BD4D
:100D200085E080936E0008950F931F93CF93DF9318
:100D30008C01EB01E6DF8AE890E090932F0180932D
:100D40002E0188E890E090933101809330019E015C
:100D5000220F331F020F131FC901825D9E4F20E037
:100D600030E0219722503109CF3F4FEFD40759F09F
:100D7000F801E20FF31F40815181FC01E20FF31FE4
:100D800057834683EECFDF91CF911F910F91089546
:100D9000EF92FF920F931F93CF93DF93E091340173
:100DA000F0913501608170E080E090E01BD220E09E
:100DB00030E040E853E45AD220E030E040E85BE322
:100DC0005CD320E030E048EC52E457D3DAD1E62E91
:100DD000062F172FE0913601F0913701608170E006
:100DE00080E090E0FFD120E030E040E853E43ED2E4
:100DF00020E030E040E85BE340D320E030E048EC26
:100E000052E43BD3BED1F62EC62FD72FE091380146
:100E1000F0913901608170E080E090E0E3D120E062
:100E200030E040E853E422D220E030E040E85BE3E9
:100E300024D320E030E044EB52E41FD320E030E044
:100E400040E251E4CBD09DD1962FE0912E01F0915C
:100E50002F01E082E0913001F0913101F082012B0D
:100E600011F4229801C0229ACD2B11F4219801C0CF
:100E7000219A6093320181E09B3008F480E08093F6
:100E80003301DF91CF911F910F91FF90EF90089563
:100E90001F920F920FB60F9211242F933F934F93EF
:100EA0005F936F937F938F939F93AF93BF93EF93D2
:100EB000FF93E0913A01F0913B01309709F00995D9
:100EC000FF91EF91BF91AF919F918F917F916F9122
:100ED0005F914F913F912F910F900FBE0F901F90F8
:100EE00018951F920F920FB60F9211248F93809135
:100EF000320188BD80913301882311F0289A01C006
:100F000028988F910F900FBE0F901F9018951F92E9
:100F10000F920FB60F92112428980F900FBE0F90CA
:100F20001F901895CF93DF93CDB7DEB7CE54D1097C
:100F30000FB6F894DEBF0FBECDBFF1DDC7D820DC01
:100F400080E796E029DC82E890E02BDCCE01C196B8
:100F50009BDCCE01499698DCCE01019695DCCE0152
:100F6000C196C1D8CE014996C3D8CE010196C5D845
:100F700081E390E08C0F9D1F47962B969FAF8EAF1D
:100F80002B9748972D969FAF8EAF2D9748972F960A
:100F90009FAF8EAF2F9763E070E0C196C5DE8EEFF6
:100FA00095E0AADE7894D5DDAB01BC01CE01C196F7
:100FB00079DDCFDDAB01BC01CE01499673DDC9DD22
:100FC000AB01BC01CE0101966DDDE2DE23DEF1DB7B
:100FD0008C01ECDBB80188DBE6CF5058BB27AA2791
:100FE0000ED0FCC1C5D130F0CAD120F031F49F3F02
:100FF00011F41EF4BAC10EF4E095E7FBA2C1E92F8B
:101000000FD280F3BA17620773078407950718F0A9
:1010100071F49EF527C20EF4E0950B2EBA2FA02D89
:101020000B01B90190010C01CA01A0011124FF2795
:10103000591B99F0593F50F4503E68F11A16F04090
:10104000A22F232F342F4427585FF3CF469537958F
:101050002795A795F0405395C9F77EF41F16BA0B54
:10106000620B730B840BBAF09150A1F0FF0FBB1F02
:10107000661F771F881FC2F70EC0BA0F621F731F4B
:10108000841F48F4879577956795B795F7959E3FA8
:1010900008F0B3CF9395880F08F09927EE0F979536
:1010A000879508952AD108F481E0089570D1E395D9
:1010B000A6C10CD093C163D140F05AD130F021F4D5
:1010C0005F3F19F03EC15111CEC14FC1A9D198F374
:1010D0009923C9F35523B1F3951B550BBB27AA27B9
:1010E00062177307840738F09F5F5F4F220F331F2B
:1010F000441FAA1FA9F333D00E2E3AF0E0E830D0F7
:1011000091505040E695001CCAF729D0FE2F27D0F9
:10111000660F771F881FBB1F261737074807AB07C7
:10112000B0E809F0BB0B802DBF01FF2793585F4F3C
:101130002AF09E3F510568F004C195C15F3FECF372
:10114000983EDCF3869577956795B795F7959F5F01
:10115000C9F7880F911D9695879597F90895E1E055
:10116000660F771F881FBB1F621773078407BA07B4
:1011700020F0621B730B840BBA0BEE1F88F7E0950F
:10118000089504D06894B1116EC1089551D188F0CA
:101190009F5790F0B92F9927B751A0F0D1F0660F63
:1011A000771F881F991F1AF0BA95C9F712C0B1307E
:1011B00081F058D1B1E0089555C1672F782F882765
:1011C000B85F39F0B93FCCF3869577956795B395BD
:1011D000D9F73EF490958095709561957F4F8F4F2C
:1011E0009F4F0895E89409C097FB3EF49095809531
:1011F000709561957F4F8F4F9F4F9923A9F0F92FDD
:1012000096E9BB279395F695879577956795B7955A
:10121000F111F8CFFAF4BB0F11F460FF1BC06F5F40
:101220007F4F8F4F9F4F16C0882311F096E911C052
:10123000772321F09EE8872F762F05C0662371F073
:1012400096E8862F70E060E02AF09A95660F771F87
:10125000881FDAF7880F9695879597F9089588D0B3
:1012600018F011F08CD038F480C0FDC0E92FD8D030
:10127000B0F35523C9F3E7FB62177307840795079B
:10128000A8F199F3E92FFF2788232AF03197660FF9
:10129000771F881FDAF7952F5527442332F0915096
:1012A0005040220F331F441FD2F7BB27E91BF50B19
:1012B000621B730B840BB109C1F222F4620F731F1E
:1012C000841FB11D31972AF0660F771F881FBB1F3F
:1012D000EFCF915050405AF041F0882332F0660F22
:1012E000771F881F91505040C1F7939530C0869565
:1012F000779567959F5FD9F7F8CF990F0008550F3D
:10130000AA0BE0E8FEEF16161706E807F907C0F08B
:1013100012161306E407F50798F0621B730B840B93
:10132000950B39F40A2661F0232B242B252B21F46D
:1013300008950A2609F4A140A6958FEF811D811D0D
:10134000089597F99F6780E870E060E008959F3FF7
:1013500031F0915020F4879577956795B795880F70
:10136000911D9695879597F908959FEF80EC0895C4
:1013700000240A9416161706180609060895002474
:101380000A9412161306140605060895EECF50D0DF
:10139000E8F3E894E0E0BB279F57F0F02AED3FE048
:1013A00049EC06C0EE0FBB0F661F771F881F28F0A1
:1013B000B23A62077307840728F0B25A620B730BC4
:1013C000840BE3959A9572F7803830F49A95BB0FA9
:1013D000661F771F881FD2F79048BBCF092E039452
:1013E000000C11F4882352F0BB0F40F4BF2B11F412
:1013F00060FF04C06F5F7F4F8F4F9F4F0895EF9343
:10140000E0FF06C0A2EA2AED3FE049EC5FEBF7DD22
:10141000E5DF0F90039401FC9058E2E5F0E0BEC0D8
:1014200057FD9058440F551F59F05F3F71F0479595
:10143000880F97FB991F61F09F3F79F0879508957A
:10144000121613061406551FF2CF4695F1DF08C099
:10145000161617061806991FF1CF869571056105B6
:1014600008940895E894BB2766277727CB0197F95E
:10147000089543DF08F48FEF08950AD0AFCF78DFE7
:1014800028F07DDF18F0952309F05BCF6ECFEBCF0E
:10149000C7DFA8F39923D9F35523C9F3950F50E07B
:1014A000551FAA27EE27FF27BB270024089467951E
:1014B00020F4E20FF31FB41F0A1E220F331F441F34
:1014C000AA1F6695A9F7779530F4F30FB41F0A1E8B
:1014D000121E08F46395330F441FAA1F221F76952E
:1014E00099F7879520F4B40F0A1E121E631F440F4C
:1014F000AA1F221F331F8695A9F7862F712D602DF5
:1015000011249F5750408AF0E1F088234AF0EE0FF3
:10151000FF1FBB1F661F771F881F91505040A9F700
:101520009E3F510570F00DCF9ECF5F3FECF3983E8C
:10153000DCF3869577956795B795F795E7959F5F67
:10154000C1F7FE2B880F911D9695879597F9089501
:101550009F931DDF0F9007FCEE5F51CFDF93D92FD4
:1015600016DFE695D7952AED3FE049E45FE3B33A0D
:101570006207730784079507D7952AF0A2EA49EC1A
:1015800090683DDD2BDFE0E7F0E008D0DD0F0BF0E9
:1015900016D0DD0F0BF49058DF9108959F938F9331
:1015A0007F936F93FF93EF939B01AC0166DFEF9105
:1015B000FF910CD02F913F914F915F915ECF9B0196
:1015C000AC0160E070E080E89FE373CDDF93CF93E0
:1015D0001F930F93FF92EF92DF927B018C0168942F
:1015E00005C0DA2EEF0154DFFE01E894A5912591A4
:1015F000359145915591AEF3EF0101DDFE01970163
:10160000A801DA9479F7DF90EF90FF900F911F9186
:0A161000CF91DF910895F894FFCF09
:10161A0001000100010001000100010002000100B7
:04162A0002000100B9
:00000001FF
