:1000000049C063C062C061C060C05FC05EC05DC007
:100010005CC05BC05AC08EC958C0CBC9B4C955C0FA
:1000200054C053C052C0DDC57FC4B7C061C19BC1BD
:10003000DDC171C2D0C21BC362C3B4C30FC49FC4AD
:10004000A3C4B2C4B6C4BAC4C9C4CDC4F7C41BC522
:100050004FC505A84CCDB2D44EB93836A9020C50C4
:10006000B9918688083CA6AAAA2ABE000000803F53
:100070000664EC1B3C04BC163E3BE5B93CC93C376E
:10008000C29E5A3D660498083EEA69AAAA3E00004C
:1000900000803F0011241FBECFEFD2E0DEBFCDBFF6
:1000A00011E0A0E0B1E0E6E1FBE102C005900D92B5
:1000B000A831B107D9F721E0A8E1B1E001C01D9254
:1000C000A63AB207E1F780D924CD9ACF80910101F9
:1000D0008F3F69F41CBC109268008FE38AB91BB88B
:1000E00089B1829586958695837080930101809170
:1000F0000101089590931A01809319010895909336
:100100001C0180931B01089590931E0180931D0193
:10011000089581E0809318010895CF93DF93E091D3
:100120001B01F0911C0127813085C0911901D091EC
:100130001A01A0911D01B0911E012817390781F005
:100140009C01255031092230310550F421E030E086
:100150003D832C833583248315963C932E931497EB
:1001600098878F839087878318969C938E93179791
:10017000DF91CF910895EF92FF920F931F93CF934A
:10018000DF938B30910508F0E1C3FC01EC5EFF4F7B
:10019000C0911901D0911A0109948EEF9FEF9D83B0
:1001A0008C83E0901B01F0901C01D70115969C9365
:1001B0008E93149700911D0110911E01F8019583F3
:1001C000848340E050E060E87FE349875A876B878B
:1001D0007C8719964D935D936D937C931C97418713
:1001E00052876387748772DF90E06EE170E062D9B6
:1001F000825F9E4FBC01882777FD8095982F72DA29
:1002000020E030E044EB53E4D2D99B01AC0164D947
:100210002BED3FE049E450E4AEDB6D877E878F87AE
:10022000988B54DF90E06EE170E044D9865A9F4F7E
:10023000BC01882777FD8095982F54DA20E030E0C4
:1002400044EB53E4B4D99B01AC0146D92BED3FE01C
:1002500049E450E490DBD7011D966D937D938D9317
:100260009C93509733DF90E06EE170E023D98C547B
:100270009F4FBC01882777FD8095982F33DA20E0C7
:1002800030E044EB53E493D99B01AC0125D92BED2D
:100290003FE049E450E46FDBF801658776878787A4
:1002A000908B80E090E0A0EFB2E4898B9A8BAB8BCF
:1002B000BC8B8D8B9E8BAF8BB88F80E090E0A8E4D9
:1002C000B2E4E701898B9A8BAB8BBC8B8D8B9E8BB9
:1002D000AF8BB88F80E090E0ACE8B2E4E801898BA6
:1002E0009A8BAB8BBC8B8D8B9E8BAF8BB88F32C0B8
:1002F0008EEF9FEF9D838C83A0911B01B0911C0119
:1003000015969C938E931497E0911D01F0911E0118
:100310009583848340E050E060E070E449875A8729
:100320006B877C8719964D935D936D937C931C9797
:1003300041875287638774871D861E861F86188AA9
:100340001D961D921D921D921C9250971586168621
:100350001786108A81E090E0DF91CF911F910F9175
:10036000FF90EF90DACE8EEF9FEF9D838C83A0916C
:100370001B01B0911C0115969C938E931497E091EC
:100380001D01F0911E019583848340E050E060E4FC
:1003900071E449875A876B877C8719964D935D93E3
:1003A0006D937C931C9741875287638774871D8662
:1003B0001E861F86188A1D961D921D921D921C92E4
:1003C0005097158616861786108A1D8A1E8A1F8AE0
:1003D000188E55961D921D921D921C925897158A43
:1003E000168A178A108E84E090E0B6CF81E090E004
:1003F0009D838C83E0901B01F0901C01D701159622
:100400009C938E93149700911D0110911E01F80189
:100410009583848340E050E060E070E449875A8728
:100420006B877C8719964D935D936D937C931C9796
:1004300041875287638774871D861E861F86188AA8
:100440001D961D921D921D921C9250971586168620
:100450001786108A3BDE823099F580E090E0A6EEA8
:10046000B2E4898B9A8BAB8BBC8B80E090E0A0EFE1
:10047000B2E48D8B9E8BAF8BB88F80E090E0AEEBBB
:10048000B2E4E701898B9A8BAB8BBC8B80E090E068
:10049000A8ECB2E48D8B9E8BAF8BB88F80E090E0A0
:1004A000A8EDB1E4E801898B9A8BAB8BBC8B80E023
:1004B00090E0A0EFB1E48D8B9E8BAF8BB88F28C0FE
:1004C00005DE833051F280E090E0A6EEB2E4898B45
:1004D0009A8BAB8BBC8B80E090E0A0EFB2E48D8B6D
:1004E0009E8BAF8BB88FD70151961D921D921D9296
:1004F0001C925497E7011D8A1E8A1F8A188EF801E4
:10050000118A128A138A148A158A168A178A108EFB
:1005100085E090E021CF81E090E09D838C83E090A6
:100520001B01F0901C01F7019583848300911D014C
:1005300010911E01D80115969C938E93149740E05C
:1005400050E060E070E449875A876B877C87418779
:1005500052876387748719964D935D936D937C934F
:100560001C971D861E861F86188A15861686178676
:10057000108A1D961D921D921D921C925097698D96
:1005800070E080E090E0ACD8698B7A8B8B8B9C8B91
:100590001D8A1E8A1F8A188EE701698D70E080E02F
:1005A00090E09ED8698B7A8B8B8B9C8B1D8A1E8AE0
:1005B0001F8A188EE801698D70E080E090E090D885
:1005C000698B7A8B8B8B9C8B1D8A1E8A1F8A188E57
:1005D00086E090E0C1CE8EEF9FEF9D838C832091CB
:1005E0001B0130911C01F90195838483E0911D0169
:1005F000F0911E019583848340E050E060E87FE342
:1006000049875A876B877C87D90119964D935D93EB
:100610006D937C931C9741875287638774871D86EF
:100620001E861F86188A1D961D921D921D921C9271
:100630005097158616861786108A80E090E0A6EE01
:10064000B2E4898B9A8BAB8BBC8B80E090E0A0EFFF
:10065000B2E48D8B9E8BAF8BB88FE901198A1A8A11
:100660001B8A1C8A1D8A1E8A1F8A188EEEC08EEF76
:100670009FEF9D838C8320911B0130911C01F90118
:1006800095838483E0911D01F0911E0195838483FD
:1006900040E050E060E87FE349875A876B877C87BA
:1006A000D90119964D935D936D937C931C97418767
:1006B0005287638774871D861E861F86188A1D963B
:1006C0001D921D921D921C925097158616861786B4
:1006D000108A198A1A8A1B8A1C8A1D8A1E8A1F8AF6
:1006E000188E80E090E0A6EEB2E4E901898B9A8B47
:1006F000AB8BBC8B80E090E0A0EFB2E4A2C08EEFA9
:100700009FEF9D838C83A0911B01B0911C011596D6
:100710009C938E931497E0911D01F0911E01958397
:10072000848340E050E060E87FE349875A876B8725
:100730007C8719964D935D936D937C931C974187AD
:100740005287638774871D861E861F86188A1D96AA
:100750001D921D921D921C92509715861686178623
:10076000108A198A1A8A1B8A1C8A1D8A1E8A1F8A65
:10077000188E51961D921D921D921C92549755965B
:100780001D921D921D921C92589780E090E0A6EE5B
:10079000B2E4818B928BA38BB48B80E090E0A0EFCE
:1007A000B2E4BBC08EEF9FEF9D838C8320911B0131
:1007B00030911C01F90195838483E0911D01F09132
:1007C0001E019583848340E050E060E87FE3498721
:1007D0005A876B877C87D90119964D935D936D93EA
:1007E0007C931C9741875287638774871D861E867A
:1007F0001F86188A1D961D921D921D921C9250975D
:10080000158616861786108A80E090E0A6EEB2E480
:10081000898B9A8BAB8BBC8B80E090E0A0EFB2E42D
:100820008D8B9E8BAF8BB88F80E090E0A4E3B2E419
:10083000E901898B9A8BAB8BBC8B80E090E0A8E4BC
:10084000B2E48D8B9E8BAF8BB88F118A128A138A7C
:10085000148A158A168A178A108E63C08EEF9FEF4E
:100860009D838C8320911B0130911C01F90195839C
:100870008483E0911D01F0911E019583848340E003
:1008800050E060E87FE349875A876B877C87D9010E
:1008900019964D935D936D937C931C974187528776
:1008A000638774871D861E861F86188A1D961D9273
:1008B0001D921D921C925097158616861786108AD7
:1008C00080E090E0A6EEB2E4898B9A8BAB8BBC8B78
:1008D00080E090E0A0EFB2E48D8B9E8BAF8BB88F61
:1008E00080E090E0AEEBB2E4E901898B9A8BAB8BB0
:1008F000BC8B80E090E0A8ECB2E48D8B9E8BAF8B3C
:10090000B88F80E090E0A8EDB1E4818B928BA38B4F
:10091000B48B80E090E0A0EFB1E4858B968BA78B41
:10092000B08F82E090E018CDCE0103D280911B0100
:1009300090911C01FED180911D0190911E01DF91CB
:10094000CF911F910F91FF90EF90F3C1DF91CF9165
:100950001F910F91FF90EF900895CF93DF93411572
:10096000510509F4CEC08A30910508F0CAC0815EF5
:100970009F4FFA01E60FF71F8F939F930895C09141
:100980001901D0911A0104C0C0911B01D0911C0122
:100990006081772767FD7095872F972FA3D66D8B82
:1009A0007E8B8F8B988FADC0C0911D01D0911E01A1
:1009B000EFCFC0911901D0911A0104C0C0911B0161
:1009C000D0911C016081772767FD7095872F972F45
:1009D00089D6698B7A8B8B8B9C8B93C0C0911D01C0
:1009E000D0911E01EFCF81816081772767FD7095DF
:1009F000762F6627682B80E090E072D69B01AC01D1
:100A000060E070E08AE795E4D2D5E0911901F091B9
:100A10001A016187728783879487E0911B01F091A7
:100A20001C016187728783879487E0911D01F09193
:100A30001E01618772878387948763C0A091190123
:100A4000B0911A018081992787FD909515969C9306
:100A50008E931497A0911B01B0911C01808199275E
:100A600087FD909515969C938E931497A0911D01E8
:100A7000B0911E018081992787FD909515969C93D2
:100A80008E9314973EC081816081772767FD7095B2
:100A9000762F6627682B80E090E022D620E030E0B9
:100AA00044EB53E484D59B01AC0116D52BED3FE01C
:100AB00049E450E460D7E8D580E090E011D6E091B9
:100AC0001901F0911A01658776878787908BE091ED
:100AD0001B01F0911C01658776878787908BE091D9
:100AE0001D01F0911E01658776878787908B09C06D
:100AF00080818B3034F4992787FD9095DF91CF91D9
:100B00003ACBDF91CF910895CF92DF92EF92FF928F
:100B10000F931F93CF93DF938C017B01009759F4C0
:100B200010921801DF91CF911F910F91FF90EF90DC
:100B3000DF90CF9008951616170694F7809118014C
:100B4000882371F3F8018081873021F0992787FD90
:100B50009095E3DAC1E0D0E0CE15DF050CF7F8019F
:100B6000EC0FFD1F80818A30D8F6992787FD90957C
:100B7000FC01EE0FFF1FED5FFE4FC080D1809E0194
:100B80002C0D3D1D2E153F055CF6BE016F5F7F4F9E
:100B9000A801E3DEFFEFCF1ADF0ACC0DDD1DDCCFAD
:100BA000249A2C98880F805381608093BA00ECEBD4
:100BB000F0E085E48083808180688083089590934D
:100BC0003B0180933A0108959093A2018093A10183
:100BD00008958DE391E008958091A3019091A4017F
:100BE00008951F920F920FB60F9211242F933F93E7
:100BF0004F935F936F937F938F939F93AF93BF9325
:100C0000EF93FF938091B900883909F44DC0D8F46F
:100C1000803709F440C078F4882329F1803609F040
:100C20006EC01092A4011092A30181E080933C0158
:100C30008093A50139C08838B9F18039A9F180388D
:100C400009F05DC041C0803B79F128F4803A81F120
:100C5000883A51F154C0883C39F1883F21F0883BF3
:100C600009F04DC021C080E98093BC008091020151
:100C70008F3F69F41CBC109268008FE38AB91BB8DF
:100C800089B18295869586958370809302018091C3
:100C9000020186DF38C0E0913A01F0913B013097C4
:100CA00009F009951092A50185EC8093BC002BC03A
:100CB0008091A5018823C1F3E091A101F091A201E7
:100CC000309791F30995F0CF8091A3019091A40101
:100CD0008436910511F410923C0120913C012223AD
:100CE00019F39C012F5F3F4F3093A4012093A30180
:100CF0002091BB00FC01E35CFE4F2083D5CF85EC47
:100D00008093BC002C9A8091BC0080688093BC00CA
:100D1000FF91EF91BF91AF919F918F917F916F91D3
:100D20005F914F913F912F910F900FBE0F901F90A9
:100D30001895FC018EEF9FEF9583848310821182BA
:100D40001282138216821086178240E050E060E81B
:100D50007FE34187528763877487158616861786D7
:100D6000108A118A128A138A148A158A168A178A97
:100D7000108E118E0895CF92DF92EF92FF921F9303
:100D8000CF93DF93EC01CB01BA0129853A854B85DE
:100D90005C85F1D52D853E854F8558899DD32BEDFA
:100DA0003FE049EC50E4E0D46B017C0111E09B0191
:100DB000AC01688179818A819B81D9D518160CF0A4
:100DC00010E01E83C882D982EA82FB82DF91CF9134
:100DD0001F91FF90EF90DF90CF900895FC01118E4E
:100DE0000895CF93DF93EC016D897E898F89988D6B
:100DF0004BD4698FDF91CF910895CF93DF93EC01AE
:100E00008C819D810196F9F0688179818A819B812D
:100E10001DD620E030E0A901AAD518162CF460E018
:100E200070E080E89FE303C060E070E0CB012989B7
:100E30003A894B895C899FD52D893E894F89588D88
:100E40004BD322D4698FDF91CF910895CF93DF9355
:100E5000EC018C819D81019689F0688179818A817C
:100E60009B81F4D529893A894B895C8984D52D8960
:100E70003E894F89588D30D307D4698FDF91CF9148
:100E80000895CF93DF93EC018C819D810196B9F099
:100E9000688179818A819B81DFD520E030E040E064
:100EA0005FE369D5D3D529893A894B895C8963D5B4
:100EB0002D893E894F89588D0FD3E6D3698FDF91F5
:100EC000CF910895CF93DF93EC018C819D8118160B
:100ED0001906C4F0892B81F420E030E040E85EE39D
:100EE000688179818A819B8146D5B0D529893A89E3
:100EF0004B895C8940D504C069897A898B899C8932
:100F0000C3D3698FDF91CF910895CF93DF93EC0125
:100F10008C819D8118161906ACF0892B91F420E084
:100F200030E040E85EE3688179818A819B8123D546
:100F30003BD329893A894B895C891DD5A5D3698F13
:100F400001C0198EDF91CF910895CF93DF93EC010B
:100F500012DF8E81882339F08C819D8197FD03C03B
:100F600001979D838C838F81988583309105F9F05B
:100F700060F48130910599F0029709F56D897E89B9
:100F80008F89988D81D3698F1BC08530910599F029
:100F900050F00697A1F4CE01DF91CF91B6CFCE01EC
:100FA000DF91CF9153CFCE01DF91CF9126CFCE01EC
:100FB000DF91CF9166CFCE01DF91CF9183CF198E94
:100FC000DF91CF9108951092200110921F0181E0CE
:100FD0008093210110922301109222011092250189
:100FE00010922401109226011092270110922801DC
:100FF0001092290108956091260170912701809136
:101000002801909129016CD320E034E244E757E4B1
:10101000CED22BED3FE049EC50E4ADD40895CF9211
:10102000DF92EF92FF9280911F019091200118169C
:10103000190634F401979093200180931F012BC06F
:1010400060912601709127018091280190912901DA
:1010500047D36B017C0120E034E244E757E4A0D29F
:1010600087FF11C020E030E040E850E4C701B6013E
:1010700033D20AD36093260170932701809328010D
:101080009093290108C01092260110922701109216
:10109000280110922901FF90EF90DF90CF900895E2
:1010A000BEDF109221010895EFE1F1E0808191818E
:1010B0000196918380830895CF92DF92EF92FF9201
:1010C00080912101811159C0609124017091250105
:1010D0006115710551F1882777FD8095982F02D30E
:1010E0006B017C0120E034E244EF56E440D487FDFC
:1010F0000CC020E034E244E757E4C701B601EBD16D
:1011000020E030E040E85EE306C020E030E040E868
:101110005EE3C701B6012FD4B2D27093230160936E
:1011200022011092250110922401E0902201F090FA
:101130002301B701882777FD8095982FD3D29F7719
:1011400020E030E040E050E412D487FD13C0F7FE09
:1011500007C065DF8091220190912301019606C0AE
:10116000A3DF8091220190912301019790932301A5
:101170008093220181E080932101FF90EF90DF9026
:10118000CF90089580912601909127019093250199
:1011900080932401089510922101089590933901BC
:1011A00080933801089584B1876084B915B881EAC5
:1011B000809380008AE08093810081E080936F00BB
:1011C00083E085BD85E080936E0008950F931F93A3
:1011D000CF93DF938C01EB01E6DF8AE890E09093F8
:1011E0002D0180932C0188E890E090932F0180934B
:1011F0002E019E01220F331F020F131FC901845DB0
:101200009E4F20E030E0219722503109CF3F4FEF31
:10121000D40759F0F801E20FF31F40815181FC011E
:10122000E20FF31F57834683EECFDF91CF911F91DB
:101230000F910895EF92FF920F931F93CF93DF9337
:10124000E0913201F0913301608170E080E090E044
:1012500047D220E030E040E853E486D220E030E09E
:1012600040E85BE388D320E030E048EC52E483D3ED
:1012700006D2E62E062F172FE0913401F0913501AA
:10128000608170E080E090E02BD220E030E040E828
:1012900053E46AD220E030E040E85BE36CD320E026
:1012A00030E048EC52E467D3EAD1F62EC62FD72FB0
:1012B000E0913601F0913701608170E080E090E0CC
:1012C0000FD220E030E040E853E44ED220E030E09E
:1012D00040E85BE350D320E030E044EB52E44BD3F2
:1012E00020E030E040E251E4F7D0C9D1962FE09100
:1012F0002C01F0912D01E082E0912E01F0912F015F
:10130000F082012B11F4229801C0229ACD2B11F406
:10131000219801C0219A6093300181E09B3008F44C
:1013200080E080933101DF91CF911F910F91FF9069
:10133000EF9008951F920F920FB60F9211242F93E2
:101340003F934F935F936F937F938F939F93AF934D
:10135000BF93EF93FF93E0913801F09139013097FB
:1013600009F00995FF91EF91BF91AF919F918F91F6
:101370007F916F915F914F913F912F910F900FBE91
:101380000F901F9018951F920F920FB60F92112475
:101390008F938091300188BD80913101882311F0B5
:1013A000289A01C028988F910F900FBE0F901F9020
:1013B00018951F920F920FB60F92112428980F9034
:1013C0000FBE0F901F901895CF93DF93CDB7DEB768
:1013D000C455D1090FB6F894DEBF0FBECDBFF3DD03
:1013E0002FEF81EE94E0215080409040E1F700C063
:1013F0000000809100018F3F69F41CBC10926800CE
:101400008FE38AB91BB889B18295869586958370DA
:101410008093000180910001C3DB82EC98E0CFDB78
:1014200089E890E0D1DBCE01C59683DCCE014B96F6
:1014300080DCCE0101967DDCCE01C5965BD6CE0167
:101440004B965DD6CE0101965FD685E390E08C0F7A
:101450009D1F499661969FAF8EAF61974A9763969D
:101460009FAF8EAF63974A9765969FAF8EAF659794
:1014700063E070E0C596AADE80E598E08FDE7894A0
:10148000BADD6B017C01AB01BC01CE01C5965DDD0F
:10149000B701A601CE014B9658DDB701A601CE01DA
:1014A000019653DDC7DE08DE97DB7C0192DBB701D6
:1014B0002BDBE6CF0024552704C0080E591F880FE8
:1014C000991F009729F076956795B8F37105B9F7DC
:1014D000802D952F08955058BB27AA270ED0FCC108
:1014E000C5D130F0CAD120F031F49F3F11F41EF481
:1014F000BAC10EF4E095E7FBA2C1E92F0FD280F349
:10150000BA17620773078407950718F071F49EF500
:1015100027C20EF4E0950B2EBA2FA02D0B01B901B6
:1015200090010C01CA01A0011124FF27591B99F059
:10153000593F50F4503E68F11A16F040A22F232F65
:10154000342F4427585FF3CF469537952795A795B5
:10155000F0405395C9F77EF41F16BA0B620B730B5C
:10156000840BBAF09150A1F0FF0FBB1F661F771FCD
:10157000881FC2F70EC0BA0F621F731F841F48F482
:10158000879577956795B795F7959E3F08F0B3CF08
:101590009395880F08F09927EE0F979587950895F2
:1015A0002AD108F481E0089570D1E395A6C10CD04A
:1015B00093C163D140F05AD130F021F45F3F19F06C
:1015C0003EC15111CEC14FC1A9D198F39923C9F39E
:1015D0005523B1F3951B550BBB27AA276217730739
:1015E000840738F09F5F5F4F220F331F441FAA1FED
:1015F000A9F333D00E2E3AF0E0E830D091505040AD
:10160000E695001CCAF729D0FE2F27D0660F771F5A
:10161000881FBB1F261737074807AB07B0E809F03C
:10162000BB0B802DBF01FF2793585F4F2AF09E3FD1
:10163000510568F004C195C15F3FECF3983EDCF3BF
:10164000869577956795B795F7959F5FC9F7880F4A
:10165000911D9695879597F90895E1E0660F771F9C
:10166000881FBB1F621773078407BA0720F0621B2D
:10167000730B840BBA0BEE1F88F7E095089504D026
:101680006894B1116EC1089551D188F09F5790F0C0
:10169000B92F9927B751A0F0D1F0660F771F881F97
:1016A000991F1AF0BA95C9F712C0B13081F058D11C
:1016B000B1E0089555C1672F782F8827B85F39F0BA
:1016C000B93FCCF3869577956795B395D9F73EF4F6
:1016D00090958095709561957F4F8F4F9F4F08959E
:1016E000E89409C097FB3EF49095809570956195BC
:1016F0007F4F8F4F9F4F9923A9F0F92F96E9BB2772
:101700009395F695879577956795B795F111F8CFED
:10171000FAF4BB0F11F460FF1BC06F5F7F4F8F4F58
:101720009F4F16C0882311F096E911C0772321F04E
:101730009EE8872F762F05C0662371F096E8862FE6
:1017400070E060E02AF09A95660F771F881FDAF73D
:10175000880F9695879597F9089588D018F011F01D
:101760008CD038F480C0FDC0E92FD8D0B0F3552319
:10177000C9F3E7FB6217730784079507A8F199F38C
:10178000E92FFF2788232AF03197660F771F881FDC
:10179000DAF7952F5527442332F091505040220F0D
:1017A000331F441FD2F7BB27E91BF50B621B730BDA
:1017B000840BB109C1F222F4620F731F841FB11DA3
:1017C00031972AF0660F771F881FBB1FEFCF91500C
:1017D00050405AF041F0882332F0660F771F881F7F
:1017E00091505040C1F7939530C086957795679595
:1017F0009F5FD9F7F8CF990F0008550FAA0BE0E8C3
:10180000FEEF16161706E807F907C0F012161306C2
:10181000E407F50798F0621B730B840B950B39F402
:101820000A2661F0232B242B252B21F408950A2668
:1018300009F4A140A6958FEF811D811D089597F9A8
:101840009F6780E870E060E008959F3F31F091501D
:1018500020F4879577956795B795880F911D969594
:10186000879597F908959FEF80EC089500240A94D6
:101870001616170618060906089500240A9412166B
:101880001306140605060895EECF50D0E8F3E89449
:10189000E0E0BB279F57F0F02AED3FE049EC06C09F
:1018A000EE0FBB0F661F771F881F28F0B23A620742
:1018B0007307840728F0B25A620B730B840BE3950D
:1018C0009A9572F7803830F49A95BB0F661F771F90
:1018D000881FD2F79048BBCF092E0394000C11F457
:1018E000882352F0BB0F40F4BF2B11F460FF04C0FB
:1018F0006F5F7F4F8F4F9F4F0895EF93E0FF06C0BC
:10190000A2EA2AED3FE049EC5FEBF7DDE5DF0F905F
:10191000039401FC9058E2E5F0E0BEC057FD9058FA
:10192000440F551F59F05F3F71F04795880F97FBA3
:10193000991F61F09F3F79F087950895121613065D
:101940001406551FF2CF4695F1DF08C0161617068C
:101950001806991FF1CF86957105610508940895C1
:10196000E894BB2766277727CB0197F9089543DFD3
:1019700008F48FEF08950AD0AFCF78DF28F07DDF2D
:1019800018F0952309F05BCF6ECFEBCFC7DFA8F33C
:101990009923D9F35523C9F3950F50E0551FAA2772
:1019A000EE27FF27BB2700240894679520F4E20F59
:1019B000F31FB41F0A1E220F331F441FAA1F669570
:1019C000A9F7779530F4F30FB41F0A1E121E08F41E
:1019D0006395330F441FAA1F221F769599F78795A9
:1019E00020F4B40F0A1E121E631F440FAA1F221FE9
:1019F000331F8695A9F7862F712D602D11249F57CF
:101A000050408AF0E1F088234AF0EE0FFF1FBB1F21
:101A1000661F771F881F91505040A9F79E3F5105C0
:101A200070F00DCF9ECF5F3FECF3983EDCF38695D0
:101A300077956795B795F795E7959F5FC1F7FE2B6B
:101A4000880F911D9695879597F908959F931DDFAF
:101A50000F9007FCEE5F51CFDF93D92F16DFE6958D
:101A6000D7952AED3FE049E45FE3B33A6207730795
:101A700084079507D7952AF0A2EA49EC90683DDDE6
:101A80002BDFE0E7F0E008D0DD0F0BF016D0DD0F24
:101A90000BF49058DF9108959F938F937F936F93EA
:101AA000FF93EF939B01AC0166DFEF91FF910CD0A8
:101AB0002F913F914F915F915ECF9B01AC0160E010
:101AC00070E080E89FE373CDDF93CF931F930F9374
:101AD000FF92EF92DF927B018C01689405C0DA2EB1
:101AE000EF0154DFFE01E894A591259135914591D0
:101AF0005591AEF3EF0101DDFE019701A801DA94E3
:101B000079F7DF90EF90FF900F911F91CF91DF91C8
:061B10000895F894FFCFD8
:101B1600FFFFFF01000100010001000100010002BA
:081B260000010002000100C5EE
:00000001FF
